:02000000592A7B
:10000800FF00030E8301EF000A08EE008A017B0857
:10001800A2007C08A1007D08A000861C21287F3052
:10002800FB00D430FC003130FD00FD0B1928FC0B1F
:100038001928FB0B1928000000008B102208FB0070
:100048002108FC002008FD006E088A006F0E83005E
:06005800FF0E7F0E0900FF
:06005E0000000000080094
:10006400293083120313FD00FD0B3628000008001D
:10007400123083120313FC00DA30FD00FD0B40281C
:08008400FC0B402800000800FD
:10008C0083120313F801F9011030FC00710DF80D07
:10009C00F90D7408F8027508031C750FF9020318A2
:1000AC005E287408F80775080318750FF907031014
:0A00BC00F00DF10DFC0B4C280800BC
:1000C60083160313DB1B6A28831288126C2883129B
:1000D600881683165B1B72288312081274288312F3
:1000E60008168316DB1A7A28831288117C28831255
:1000F600881583165B1A82288312081184288312B6
:1001060008156D18882808148928081088142F20C7
:1001160088108316DB19922883128812942883127A
:10012600881683165B199A28831208129C28831254
:1001360008168316DB18A22883128811A4288312B6
:10014600881583165B18AA2883120811AC28831217
:1001560008156D18B0280814B128081088142F2027
:0E01660088106D1CB8283A20B92832200800F5
:0E017400123083120313FD00FD0BBE2808009D
:10018200831203136D1083165608DB0063206D146F
:02019200080063
:1001940083160313D901053059020318D8285908C6
:1001A4005807840020308000D90ACD285908580700
:1001B40084008001D90359085807DA000A30F40092
:1001C400F5015608F0005708F10046207808F000C1
:1001D4007908F1003030F00783165A08840070085B
:1001E40080000A30F400F5015608F0005708F100C9
:1001F400462070088316D6007108D70000307106B7
:10020400031D062900307006031D09290B29D90393
:04021400DD280800D9
:0E021800831203136C088A006B088200080032
:10022600C330831203139F05C0309F0083164D0809
:10023600F000F00D7010F00D7010700883129F041E
:100246006109F000700883169F059F1783121F141B
:10025600BA209F149F1C312900002D291F101E084B
:10026600F100F00183161E08F0040030F1040800C6
:1002760083160313D201D3014D08D4004E08D500CE
:1002860080304E06F00080307002031D4C2900308D
:100296004D0203185A290130D2000030D3004D0810
:1002A600003CD4004E08031C013ED501D50254087B
:1002B600D6005508D7004F08D800CA200630D0000F
:1002C6000030D1005108003C031D6B295008003C4A
:1002D6000318862950084F07F20001305002F0003B
:1002E6000030031C013E5102F10070084F078400E4
:1002F6000008F00072088400700880000130D00207
:10030600031CD10365294F08840020308000520861
:1003160053040319A429D001D10150084F078400C2
:100326000008203A031D9B29D00A0319D10A9029F7
:100336000130D002031CD10350084F0784002D3032
:04034600800008002B
:10034A00B729803083160313CD00CA29C030CD00E7
:10035A00CA299430CD00CA29D430CD00CA298030A8
:10036A00CD00CA29831603134D08013A0319A62999
:10037A004D08023A0319AB294D08033A0319AE296D
:10038A004D08043A0319B129B4294E03F0004D0867
:10039A00F0077008CD007008DB0063206D1083162B
:1003AA00D00150084F07840000080319E5295008B6
:1003BA004F0784000008D600C1208316D00AD62928
:0603CA0083126D1408000F
:1003D0008316031388100810081188110812881258
:1003E00083128810081088120812881108113A2008
:1003F0003A203A208815081588142F2088103A20B2
:1004000088142F2088103A2088142F2088103A2032
:10041000081188142F2088103A2088142F20881063
:100420008811881688142F2088103A208812081501
:1004300088142F208810081188142F2088103A2043
:1004400088142F208810081588142F2088103A202F
:10045000081188142F20881088160816881508158A
:0C04600088142F2088103A206D1408002A
:10046C000C218A110A128000840AEB0A0319EC0A87
:08047C00F003031D362A0800FD
:10048400FF3083160313BC00FF30BD00FF30BE00F5
:10049400FF30C33083129F05C0309F006109F00014
:0E04A400700883169F059F1783121F1408000F
:1004B2000424E821422203308316031788008901AD
:1004C20083128713881383160313860183128614FB
:1004D200061186118B170B16831601130130DB00F0
:1004E20063200C308316DB00632001308316CD00BD
:1004F2000130CE004F30CF00A52102308316CD004F
:100502000130CE006230CF00A5211A30FB005E30F0
:10051200FC006E30FD00FD0B8C2AFC0B8C2AFB0BC1
:100522008C2A00008316CD01132170088312A500C6
:100532007108A60001308316CD00132170088312C2
:10054200A3007108A4007108013C031DAA2A7008C7
:10055200F43C031CB52A2608013C031DB22A2508D7
:10056200F43C031CB52A202B2408013C031DBB2AA2
:100572002308F43C0318EA2A861006158615230878
:100582008316CD00831224088316CE00C630CF0016
:100592003B210130DB00632001308316CD000130A6
:1005A200CE00A030CF00A52102308316CD0001304D
:1005B200CE00C630CF00A5211A30FB005E30FC0011
:1005C2006E30FD00FD0BE32AFC0BE32AFB0BE32A52
:1005D20000002608013C031DF02A2508F43C0318FC
:1005E2001F2B86100615861501308316DB0063204B
:1005F20001308316CD000130CE00B030CF00A521EE
:1006020025088316CD00831226088316CE00BF303C
:10061200CF003B210230CD000130CE00BF30CF00F1
:10062200A5211A30FB005E30FC006E30FD00FD0B90
:10063200182BFC0B182BFB0B182B0000982B861485
:100642000611861101308316DB0063200130831608
:10065200CD000530CE004530CF00A52102308316F3
:10066200CD000630CE004B30CF00A5210D30FB006F
:10067200AF30FC00B630FD00FD0B3D2BFC0B3D2BDB
:10068200FB0B3D2B000001308316DB0063200130A1
:100692008316CD000130CE002730CF00A5212508DA
:1006A2008316CD00831226088316CE00BF30CF00FA
:1006B2003B210230CD000130CE00BF30CF00A5215A
:1006C2000D30FB00AF30FC00B630FD00FD0B672B98
:1006D200FC0B672BFB0B672B000001308316DB0042
:1006E200632001308316CD000130CE003430CF00BC
:1006F200A52123088316CD00831224088316CE0079
:10070200C630CF003B210230CD000130CE00C630D2
:10071200CF00A5210D30FB00AF30FC00B630FD004C
:10072200FD0B912BFC0B912BFB0B912B0000932AC1
:02073200992B01
:1008080023308400483083120313F0009F30EB003C
:100818000330EC003622A03084001C300313F000B3
:0C082800E730EB000330EC003622080043
:04073E00003400344F
:04074200003400344B
:10074600473461347A34203453346534763469342A
:0A07560079346534733469340034DB
:1007600041346734693472346C3469346B34203406
:100770005334653476346934793465347334693488
:02078000003443
:0C07820053346F34723475346E3400341C
:08078E0059346F346B34003460
:1007960041346B3469346C346C346934203420341D
:1007A6004B346F346E347434653479346E34693452
:0407B6007234003465
:0207BA003034D9
:1007BC0055347934673475346C3461346D34613448
:0207CC000034F7
:1007CE0041346734693472346C3469346B34203498
:1007DE005534793461347234693473346934003485
:1007EE00473461347A342034553479346134723478
:0807FE006934733469340034DE
:04400E00F22F000786
:00000001FF
